:020000040800F2
:10000000F82200209D010008112C00081923000887
:100010001D2B0008E70700088D3D000800000000C8
:1000200000000000000000000000000005010008C2
:10003000210A0008000000004901000831380008CA
:10004000B7010008B7010008B7010008B7010008B0
:10005000B7010008B7010008B7010008B7010008A0
:10006000B7010008B7010008B7010008B701000890
:10007000B7010008B7010008B7010008B701000880
:10008000B7010008B7010008B7010008B701000870
:10009000B7010008B7010008B7010008B701000860
:1000A000B7010008B7010008B7010008B701000850
:1000B000E1380008B7010008ED380008B701000872
:1000C000B7010008B7010008B7010008B701000830
:1000D000B7010008293D0008813D0008B70100086C
:1000E000B7010008B7010008B7010008DFF810D019
:1000F00000F0BEFA004800470D490008AFF3008049
:10010000F8220020224B19680868B0E8F00F80F34D
:100110000988BFF36F8F4FF0000080F311884EF015
:100120000D0E70470000000006480068006880F36C
:10013000088862B661B6BFF34F8FBFF36F8F00DFE1
:1001400000BF00BF08ED00E0EFF30980BFF36F8F41
:100150000F4B1A6820E9F00F106008B54FF05000FF
:1001600080F31188BFF34F8FBFF36F8F04F09AFFB6
:100170004FF0000080F31188BDE808401968086856
:10018000B0E8F00F80F30988BFF36F8F704700BFAE
:1001900028000020EFF305807047000006488047E4
:1001A00006480047FEE7FEE7FEE7FEE7FEE7FEE75C
:1001B000FEE7FEE7FEE7FEE7DD380008ED00000899
:1001C000202A04DB203A21FA02F00021704721FAAC
:1001D00002F3D040C2F12002914008431946704713
:1001E0000649074A0868504343F239021044086040
:1001F0004008704701490860704700003C09002032
:100200006D4EC64140EA01039B0703D009E008C9CF
:10021000121F08C0042AFAD203E011F8013B00F8CB
:10022000013B521EF9D27047D2B201E000F8012B17
:10023000491EFBD270470022F6E710B513460A4666
:1002400004461946FFF7F0FF204610BD00F00042BB
:1002500030F000400AD0C10D01F56071C0F3160006
:1002600042EA0151C208400711437047002001468D
:10027000704730B50B46014600202022012409E0DA
:1002800021FA02F59D4205D303FA02F5491B04FA4F
:1002900002F52844151EA2F10102F1DC30BD2DE962
:1002A000F05F0546002092469B46884606468146FA
:1002B00040241BE02846414647462246FFF780FF80
:1002C00053465A46C01A914110D311461846224649
:1002D00000F0E0F92D1A67EB01084F462246012095
:1002E000002100F0D7F917EB00094E41201EA4F1C0
:1002F0000104DFDC484631462A464346BDE8F09F0C
:100300002DE9FE4F804681EA0300C00F0C460090A5
:1003100021F0004123F00045B8EB0200A94105D2CD
:100320004046214690461C460B46024623F00040BC
:10033000104347D0270DC7F30A00C3F30A510290B8
:10034000401A019040286BDAC3F3130040F4801B7D
:100350000098924620B10023D2EB030A63EB0B0B0B
:1003600001985946C0F14002504600F093F9064604
:100370000D4650465946019A00F09BF910EB0800D3
:100380006141002487EA115284EAE7731A4340D09E
:10039000009A62B3019A012A4FEA075215DC001B4A
:1003A00061EB02014FF0004202EA0752CDE9004240
:1003B000001C41F5801132462B4600F09BF903B03A
:1003C000BDE8F08F40462146F9E7001B61EB0201D2
:1003D000001C41F5801300185B412018A2F500179E
:1003E00047EB030140EAD570B6196D4111E06D0885
:1003F0004FEA360645EAC0754FEA0752001B61EB2B
:100400000201001C41F5801149084FEA3000001933
:10041000514132462B4603B0BDE8F04F00F05BB9C6
:100420000098012240000023D0EB020263EBE0734E
:10043000009821464FEAE074B8EB000061EB04013C
:10044000E9E783F000435BE781F0004158E72DE9DD
:10045000FE4F81EA030404F0004421F000410094BF
:100460004FF0000B23F0004350EA01045ED052EA43
:1004700003045BD0C3F30A54C1F30A552C44A4F21D
:10048000F3340194A0FB0254C1F3130141F4801131
:10049000C3F3130343F4801301FB024400FB034E38
:1004A000840A970A44EA815447EA8357A4FB076801
:1004B00002958D0A05FB07854FEA932C04FB0C542B
:1004C0002705029D4FEA065847EA1637B5EB08059F
:1004D0006EEB070C870E920E47EA811742EA8312F1
:1004E000A7FB0201B6EB0B0164EB00042B0D43EA02
:1004F0000C335E1844EB1C50DA465146E7FB020110
:10050000C5F313044FEA0B3343EA14534FEA0432A2
:10051000019C43EA0603A4F10C040294009CCDE97B
:1005200000B400F0E7F803B0BDE8F08F002001460A
:10053000F9E72DE9F04D81EA030404F0004B21F0C6
:10054000004514464FF0000A23F0004150EA05022E
:1005500020D054EA01021DD0C5F30A570246C5F364
:100560001303C1F31300C1F30A5640F4801543F49A
:100570008013A7EB0608101BD64608F2FD3873EB74
:10058000050002D308F1010801E092185B41B8F1BF
:10059000000F03DA00200146BDE8F08D00204FF483
:1005A0008011064684460EE0171B73EB050705D342
:1005B000121B63EB050306434CEA010C49084FEAA2
:1005C000300092185B4150EA0107EDD152EA030076
:1005D00012D082EA040083EA0501084305D0101B0B
:1005E000AB4106D20122002306E000224FF0004377
:1005F00002E06FF0010253101AEB06004CEB0851B9
:1006000010EB0A0041EB0B01BDE8F04D00F063B8C0
:10061000C1F30A52C1F3130140F2FF3341F48011D8
:100620009A4202DA00200146704740F233439A4270
:10063000A2F2334202DC5242FFF7C2BD00F02AB8F8
:1006400030B5041E71F1000404DB4FF00044404259
:1006500064EB0101141E73F1000405DB1C464FF02E
:100660000043524263EB0403994208BF904230BDFD
:10067000064C074D06E0E06840F0010394E80700EF
:1006800098471034AC42F6D3FFF734FD38680008C1
:1006900058680008202A04DB203A00FA02F1002002
:1006A00070479140C2F1200320FA03F319439040B0
:1006B0007047202A06DBCB17203A41FA02F043EAC2
:1006C000E07306E041FA02F3D040C2F1200291400B
:1006D00008431946704710B5141E73F1000408DA78
:1006E000401C41F1000192185B411A4301D120F0F6
:1006F000010010BD2DE9F04D92469B4611B1B1FAB3
:1007000081F202E0B0FA80F220329046FFF7C2FF99
:1007100004460F4640EA0A0041EA0B0153465A4696
:10072000084313D0114653EA010019D0C8F1400222
:100730005046FFF745FD05460E465046594642468F
:10074000FFF7A8FF084305D0012004E02046394602
:10075000BDE8F08D0020054346EAE0762C433743A0
:100760000A986305E40AA0EB08000022FD0A44EAA7
:1007700047540A3002D500200146E9E70105101967
:100780006941DDE9084500196941BDE8F04DA2E77E
:1007900070B58C1810F8015B15F0070301D110F843
:1007A000013B2A1106D110F8012B03E010F8016B70
:1007B00001F8016B5B1EF9D12B0705D40023521EF3
:1007C0000DD401F8013BFAE710F8013BCB1A921C5B
:1007D00003E013F8015B01F8015B521EF9D5A14259
:1007E000D8D3002070BDFEE700F01EB910B500F0B0
:1007F00057F8BDE81040322000F024BA10B5282088
:1008000003F04CF91021044800F01EFB08B1002051
:1008100010BD012010BD0000001801401FB51022BE
:10082000084B012120B100200092CDE9010104E034
:100830000320CDE90021CDE902106946184600F0F9
:1008400013FA1FBD0018014010B50C4C10212046B2
:1008500000F0FAFA0028F9D0282003F01FF910213F
:10086000204600F0F1FA002806D01021204600F0C2
:10087000EBFA0028F9D1012010BD0000001801405A
:1008800070B5002425466006040EFFF7DDFF08B1B1
:1008900044F001046D1CEDB2082DF4D3204670BD68
:1008A0003EB500200190029000F06AF8FFF7A6FF25
:1008B000002852D02A4C1021204600F0C5FA00280A
:1008C000F9D01021204600F0BFFA0028F9D1002409
:1008D0000DF10405FFF7D4FF2855641CE4B2052C84
:1008E000F8D39DF804009DF805109DF807200844F2
:1008F0009DF80610114408449DF8081088422AD13A
:100900000021102317A2084602F0FBFC102318A2B6
:1009100000215A2002F0F5FC102400949DF80620D6
:1009200002230021622002F0B7FC102311A2022151
:10093000002002F0E6FC10230DA20221412002F06B
:10094000E0FC022300949DF804201946492002F09F
:10095000A3FC01203EBD00203EBD02203EBD0000A4
:100960000018014054656D706572617475726500A0
:100970003A00000048756D696469747900000000F0
:1009800010B50020FFF74AFF00221021054800F0B3
:1009900060FA142000F056F9BDE810400120FFF77E
:1009A0003DBF0000001801407CB5154A0244D078D4
:1009B00060F31F64107960F31744507860F30F24DC
:1009C000907860F30704D07960F31F61107A60F3C8
:1009D00017410846517961F30F20917961F30700BF
:1009E000FFF734FC05460E462046FFF72FFCCDE905
:1009F000005602460B4603A003F0CAF920467CBD10
:100A0000041E002074656D703D20252E3266202C5A
:100A100074656D70323D20252E32660D0A0000008F
:100A2000704772B6FEE70000F8B5012600254B4C72
:100A300003F0A6FE08287DD02079012865D0A068A3
:100A4000401CA0602069002802DC03F099FE2070A1
:100A500002F0C0FA02F098F92069002873DC2078CF
:100A6000022870D002F0E6F96179607802F00EF9A0
:100A70006061617800296BD001296BD01821A170C9
:100A8000C9B2C8420CD5FFF7ABFBC11700EB91719F
:100A900021F00301401AC0B26070012102F0F6F8A3
:100AA000206910280ADA6069A0F11001102904D920
:100AB000A17808441038102800D826710C2328A2E9
:100AC0000021232002F01DFC0C27009705230021A4
:100AD0003A20E26802F0E0FB009705230021622043
:100AE000A26802F0D9FB6571A0681421B0FBF1F097
:100AF000C0B2E0701D2801D91D20E070C0B2C0F165
:100B00001E0000F09FF8257092E702F097FA03F0BC
:100B100037FEC0B2207007288AD1D4E9020188428A
:100B200000D9E060A560257125613046667102F04C
:100B3000B7F901E010E006E06179607802F0A6F80C
:100B400002F067F874E7607902F0AAF920618BE798
:100B5000082194E7102192E7F8BD000088000020EA
:100B600048493A0010B590F821100022022905D01A
:100B70000421816380F82020012010BD01680B68EA
:100B800023F00E030B6001680B6823F001030B6078
:100B900090F84030C46B012101FA03F3636080F8E0
:100BA000211080F82020104610BD000010B590F8EC
:100BB00021100024022903D00421816301243DE097
:100BC00001680A6822F00E020A6001680A6822F0D1
:100BD00001020A601A4A0168914201D1012121E013
:100BE000174A1432914201D110211BE0144A2832D5
:100BF000914201D1891515E0114A3C32914201D14F
:100C000089140FE00E4A5032914202D14FF48031E4
:100C100008E00B4A6432914202D14FF4801101E0A6
:100C20004FF08071064A083A5160012180F8211086
:100C3000002180F82010416B01B18847204610BD8B
:100C40000800024070B5044600F008F90546601C33
:100C500002D004480078044400F000F9401BA04290
:100C6000FAD370BD180000202DE9F84FDFF8B891D5
:100C70000024A9F1040B23460F2709F1040AABF164
:100C8000040EC9E00125A5402A40AA427DD1674E45
:100C9000D1F804C0ACEB0608B44532D014DCBCF18A
:100CA000030F3AD009DCBCF1000F2AD0BCF1010FD0
:100CB0001CD0BCF1020F31D11DE0BCF1110F17D0D7
:100CC000BCF1120F2AD119E0B8F5881F19D006DC43
:100CD000B8F5803F15D0B8F5801F1FD111E0B8F5E9
:100CE000001F0ED0B8F5041F18D10AE0CB6815E03C
:100CF000CB681B1D12E0CB6808330FE0CB680C33C8
:100D00000CE08B682BB1012B4FF0080303D0456139
:100D100004E0042302E0056100E00023FF2A01D87B
:100D2000064601E000F104064FEA840501D9A5F169
:100D30002005D6F8008007FA05FC28EA0C0803FA1B
:100D400005F548EA0508C6F800804D68ED0062D553
:100D5000374DAE6946F00106AE61AD6924F0030679
:100D600005F001050095334D06EB050CDCF8085045
:100D7000A607360F07FA06F825EA0805DFF8B88057
:100D8000404503D14FF0000817E044E0DFF8AC80A5
:100D9000404502D14FF001080FE0DFF8A480404544
:100DA00002D14FF0020808E0DFF89880404502D1F8
:100DB0004FF0030801E04FF0040808FA06F848EA8B
:100DC0000508CCF808804D68D9F80060ED024D4662
:100DD00001D5164300E096432E604D68DAF80060B6
:100DE000AD02554601D5164300E096432E604D688E
:100DF000DBF80060AD035D4601D5164300E0964385
:100E00002E604D68DEF80060ED03754601D516438F
:100E100000E096432E60641C0D682A46E5407FF48E
:100E200031AFBDE8F88F0000080401400000111048
:100E3000001002400000014000080140000C014089
:100E400000100140001401408068084000D00120DB
:100E500070470AB1016170470904FBE701488068E7
:100E60007047000018000020024881680278114491
:100E70008160704718000020074810B5016841F0F4
:100E800010010160032000F0A7F80F2000F006F821
:100E900000F050F8002010BD0020024030B505469B
:100EA0001F4887B0C16941F00401C161C06906A94A
:100EB00000F00400009001A800F004FA0498B0B11A
:100EC00000F020FA40001749174AB0FBF1F117482B
:100ED000491E0260416040F2E7320021C0E903216F
:100EE0008160816100F0E8FD040003D015E000F0AE
:100EF00009FAE8E70D4800F035FE04000DD11E2088
:100F000000F03CF8102D07D2002229461E2000F0E8
:100F100043F80748056000E0012407B0204630BDD3
:100F20000010024040420F0000080040CC0C00209E
:100F30001C0000200F4808B5816941F00101816162
:100F4000816901F001010091C16941F08051C161E5
:100F5000C069002200F0805000900F21901E00F028
:100F60001BF80548416821F0E06141F000714160E3
:100F700008BD00000010024000000140002809DB0D
:100F800000F01F02012191404009800000F1E020A3
:100F9000C0F8001170470000F0B40E4B1B680C46FF
:100FA000C3F30223C3F10705042D00D90425191D3D
:100FB000072901D2002300E0DB1E012606FA05F115
:100FC000491E214099409E40761E16403143F0BC98
:100FD00002F0EEBE0CED00E0064900F007020868E2
:100FE0004FF6FF03184040EA0220034A104308600E
:100FF000704700000CED00E00000FA0501490120F7
:101000000862704700000E4210B501460020234CD4
:10101000012922D0022939D010291DD16168226806
:10102000D20119D51E48C1F38342C903805C0AD599
:1010300061681B4AC1F34041921E515C194AB2FBE0
:10104000F1F1484301E0184948436168490203D47B
:1010500040000321B0FBF1F010BD226AC2F3012170
:10106000012903D1920701D5C80310BD022905D17A
:10107000626A920702D549F6404010BD0329FCD1AF
:1010800021688903F9D54FF2244010BD00F04AF9D8
:101090006168C1F38131491C4900DBE7001002405F
:1010A000A054000800127A0000093D002DE9F84321
:1010B00005460078354CC00754D0E0690026C000D2
:1010C00008D4E06940F08050E061E069012600F05A
:1010D000805000902E480168C90512D401688046EE
:1010E00041F480710160FFF7B9FE074605E000BFDB
:1010F000FFF7B4FEC01B642823D8D8F80000C00551
:10110000F6D5206A10F4407021D0A98801F440710E
:1011100081421CD0206A1F49012220F440700A60DD
:1011200000220A602062C00711D0FFF797FE074631
:1011300041F2883808E000BFFFF790FEC11B41452F
:1011400002D90320BDE8F883206A8007F4D5206A1D
:10115000696820F44070084320621EB1E06920F005
:101160008050E0612878800705D56068A96820F480
:101170004040084360602878C00605D56068E9688B
:1011800020F48000084360600020DBE7001002408C
:1011900000700040400442422DE9F0470F46050030
:1011A00061D0434E306800F00700B84209D2306881
:1011B00020F0070038433060306800F00700B84284
:1011C00051D128683B4C810712D5400703D5606890
:1011D00040F4E06060602878000703D5606840F460
:1011E000605060606068A96820F0F00008436060AB
:1011F0002878C00728D06868012810D02168022804
:1012000010D0890700292EDA616821F0030101431B
:101210006160FFF723FE804641F288390DE02168C6
:101220008903EFE78901EDE7FFF718FEA0EB08015E
:10123000494502D90320BDE8F0876068696800F07D
:101240000C00B0EB810FEFD1306800F00700B8421E
:101250000BD9306820F0070038433060306800F068
:101260000700B84201D00120E5E72878400705D5FE
:101270006068E96820F4E06008436060287800074F
:1012800006D56068296920F4605040EAC1006060BA
:1012900000F058F86168084AC1F30311515CC84076
:1012A0000649086006480068FFF7F8FD0020C2E71D
:1012B0000020024000100240B0540008240000202A
:1012C0001C0000200F2202600C4A536803F0030345
:1012D0004360536803F0F0038360536803F4E063F2
:1012E000C36052684FF4E06303EAD202026104482B
:1012F000006800F00700086070470000001002401E
:10130000002002400448054900684968044AC1F3C6
:101310000221515CC84070472400002000100240A8
:10132000C05400080448054900684968044AC1F3EC
:10133000C221515CC84070472400002000100240C8
:10134000C05400080E4A51680E4801F00C03042BEB
:1013500011D0082B0FD10C48C1F38343C903C05CE3
:101360000AD55168084AC1F34041921E515C054AB2
:101370005043B0FBF1F07047044948437047000008
:101380000010024000127A008E54000800093D004F
:101390002DE9F84F040070D02078C04DC00749D027
:1013A0006868C0F38100012807D06868C0F3810035
:1013B000022809D16868C00306D52868800339D59A
:1013C00060680028E7D035E06068B0F5803F0BD05A
:1013D00010B1B0F5A02F11D0286820F4803028601B
:1013E000286820F4802002E0286840F480302860DB
:1013F000606890B1FFF732FD06460AE0286840F4C5
:1014000080202860F0E700BFFFF728FD801B6428DC
:1014100073D828688003F7D50CE0FFF71FFD064658
:1014200005E000BFFFF71AFD801B6428F0D828688C
:101430008003F7D420789A4E80074FF001094FF0CF
:10144000000839D5686810F00C0F07D06868C0F341
:101450008100022809D16868C00306D42868800783
:1014600014D52069012808D110E02069B0B1C6F870
:101470000090FFF7F3FC074605E00AE1FFF7EEFCFA
:10148000C01B0228C4D828688007F7D5286861697E
:1014900020F0F80040EAC10028600DE0C6F80080A6
:1014A000FFF7DCFC074604E0FFF7D8FCC01B02286E
:1014B00023D828688007F7D4207800072CD57948EE
:1014C000A169D9B1C0F80090FFF7C8FC074604E055
:1014D000FFF7C4FCC01B02280FD8686A8007F7D545
:1014E00071484FF4FA510068B0FBF1F0009000BF72
:1014F0000098411E0091FAD20EE080E0C0F8008012
:10150000FFF7ACFC074604E0FFF7A8FCC01B02286D
:1015100075D8686A8007F7D42078400760D5E869F5
:101520000027C00008D4E86940F08050E861E8690D
:10153000012700F0805000905C480168C90513D471
:101540000168834641F480710160FFF787FC8246A1
:1015500006E000BFFFF782FCA0EB0A0064284ED82B
:10156000DBF80000C005F5D5E06801280AD008B115
:10157000052813D0286A20F001002862286A20F08C
:10158000040002E0286A40F001002862E06841F2AD
:10159000883B98B1FFF762FC82460BE0286A40F076
:1015A00004002862EEE700BFFFF758FCA0EB0A0139
:1015B00059455AD8286A8007F6D50CE0FFF74EFC4B
:1015C000824605E0FFF74AFCA0EB0A0159454CD8DA
:1015D000286A8007F6D41FB1E86920F08050E861DE
:1015E000E06988B36968C1F38101022944D0022807
:1015F000C6F8608004D0FFF731FC044638E034E0E0
:10160000FFF72CFC074604E0FFF728FCC01B02286C
:101610002BD828688001F7D4206AB0F5803F05D127
:101620006868A16820F4003008436860D4E90801C4
:101630000843696821F4741108436860C6F8609033
:10164000FFF70CFC044606E025E000BFFFF706FCB0
:10165000001B022809D828688001F7D51BE000BFCD
:10166000FFF7FCFB001B022802D90320BDE8F88F1E
:1016700028688001F4D40EE00128F7D06868226A57
:1016800000F48031914204D1616A00F47010884204
:1016900001D00120EAE70020E8E700000010024046
:1016A00000004242800442422400002000700040BA
:1016B000F8B505004FF0000016460C46009006D025
:1016C0002CB100226946284600F019F808B1012023
:1016D000F8BD287B2070E87BE070697B6170A97B96
:1016E000A17056B101F087FEE070607801F083FED2
:1016F0006070A07801F07FFEA0700020F8BD2DE999
:10170000F04791460C465FEA00084AD084B3D8F807
:1017100000004068400744D4404601F00BFF4FF4FE
:1017200061620546B0FBF2F1B0FBF2F302FB13502D
:101730003C23B0FBF3F0B5FBF2F6607002FB1650F1
:10174000B0FBF3F203FB1200A070182931D318206C
:10175000B1FBF0F7B1FBF0F200FB12102070404635
:1017600001F0E1FE411C04D0A84202D9461B02E070
:1017700017E04FF0FF36A7EB071000EB4000C0EB7F
:10178000001005EBC0152946404601F022FF40B984
:10179000701C01D0711900E03146404601F005FF90
:1017A00010B10120BDE8F0873946404601F02EFE19
:1017B00000E02170B9F1000F0BD0207801F01BFE82
:1017C0002070607801F017FE6070A07801F013FEC1
:1017D000A0700020E6E7000070B5040003D0607C34
:1017E000002610B105E0012070BD2674204600F0EF
:1017F0003DF802206074204600F00AF9042550BB31
:10180000204601F05AFE30BB2068416821F00701F4
:101810004160A06820B11448016821F00101016015
:101820001148001F0168A26821F460711143016032
:101830006068411C04D10120FFF7E6FB58B1401E4F
:101840002268C0F303419160216880B2C8602046DD
:1018500001F04EFE08B16574C5E7E67301206073C0
:10186000A0736074002070BD306C004008B5006843
:10187000084988420DD1FFF7C1FB0748C16941F013
:101880000061C161C069054900F00060009001205D
:10189000086008BD00280040001002403C0442429D
:1018A0002DE9F0410D4604003BD0C5B3207C012852
:1018B0003AD04FF0010884F8108002206074E87874
:1018C00072B301F08FFDE073687801F08BFD6073F7
:1018D000A87801F087FDA073C2B2617BE07B01F0C4
:1018E00039FE20732870204601F024FE4FF4616118
:1018F000B0FBF1F1002518292DD91822B1FBF2F126
:10190000A1EB011101EB4101C1EB011100EBC1168B
:101910003146204601F05DFE0427C8B90BE000E027
:1019200004E00120BDE8F0810220FBE7E073687865
:101930006073A878CFE7204601F0F5FD411C0AD07E
:10194000B04208D206490144204601F02EFE10B1F3
:1019500067742574E5E784F8118025740020E1E7B9
:10196000805101002DE9F0410D46040024D01DB343
:10197000207C012823D04FF0010884F81080022039
:1019800060742878EAB101F02DFD4FF4616100FB2D
:1019900001F6687801F026FDC0EB001006EB80062A
:1019A000A87801F01FFD35182946204601F011FEE8
:1019B0000026042710BB0FE00120BDE8F0810220C3
:1019C000FBE74FF4616148436978C1EB011100EB1B
:1019D0008100A9784518E7E72068416821F00501F2
:1019E0004160204601F09FFD411C0AD0A84208D268
:1019F00006490144204601F0D8FD10B167742674F1
:101A0000DAE784F8118026740020D6E780510100BF
:101A100070B504000AD02068416821F008014160D7
:101A2000FFF71CFA05464FF47A7608E0012070BDF6
:101A3000FFF714FA401BB04201D9032070BD2068A3
:101A400040680007F4D5002070BD70477047000063
:101A500070B590F83C20012A26D0012480F83C4043
:101A6000022280F83D2003685A689D6822F07006C3
:101A70000A6832435A600D4B02689A4208D0B2F1AC
:101A8000804F05D00A4B9A4202D00A4B9A4204D1A9
:101A9000496825F080031943916080F83D4000219A
:101AA00080F83C10084670BD022070BD002C01403B
:101AB000000400400008004010B5040003D094F872
:101AC0003D0010B107E0012010BD002084F83C006B
:101AD000204600F01FF8022084F83D00211D2068F8
:101AE00001F00AFF012084F8460084F83E0084F8E3
:101AF0003F0084F8400084F8410084F8420084F8F4
:101B0000430084F8440084F8450084F83D00002038
:101B100010BD000008B501681048B1F1804F0BD02E
:101B20000F4A914207D1C16941F00201C161C06908
:101B300000F00200009008BDC16941F00101C161DF
:101B4000C069002200F00100009005211C20FFF771
:101B500023FABDE808401C20FFF710BA001002402D
:101B60000004004090F83D10012901D00120704789
:101B7000022180F83D100168CA6842F00102CA6083
:101B800000680B49884208D0B0F1804F05D0094960
:101B9000884202D00849884204D1816801F00701D7
:101BA000062903D0016841F001010160002070475F
:101BB000002C0140000400400008004070B50446BD
:101BC00090F83C000025012817D0012684F83C60DD
:101BD000022084F83D002068826822F0770222F417
:101BE0007F4282600868502838D00DDC20284FD012
:101BF00005DC90B3102811D14AE0022070BD3028D6
:101C000046D040280AD13BE060282FD070280DD064
:101C1000B0F5805F03D0B0F5005F12D0012584F8E5
:101C20003D60002084F83C00284670BDCB68D1E9B7
:101C30000121206801F096FE2068816841F077015B
:101C400009E0CB68D1E90121206801F08BFE206812
:101C5000816841F480418160E1E719E0CA68496820
:101C6000206801F091FE5021206806E0CA684968AA
:101C7000206801F09AFE6021206801F07DFECEE729
:101C8000CA684968206801F07FFE40212068F4E7B7
:101C9000226801461046F0E7704770B504460068B8
:101CA00001694FF00005C943890715D4C168C943CC
:101CB000890711D4E91E016101202077206880691D
:101CC0008007204602D0FFF7E7FF04E000F098F815
:101CD000204600F096F8257720680169C943490736
:101CE00017D4C168C943490713D46FF004010161D7
:101CF000022020772068806910F4407F204602D0BF
:101D0000FFF7CAFF04E000F07BF8204600F079F806
:101D1000257720680169C943090716D4C168C943FA
:101D2000090712D46FF008010161042020772068B0
:101D3000C0698007204602D0FFF7AEFF04E000F044
:101D40005FF8204600F05DF8257720680169C943F7
:101D5000C90617D4C168C943C90613D46FF010016E
:101D60000161082020772068C06910F4407F204678
:101D700002D0FFF791FF04E000F042F8204600F0A7
:101D800040F8257720680169C943C90708D1C168AF
:101D9000C943C90704D1891E0161204600F032F809
:101DA00020680169C943090609D4C168C943090605
:101DB00005D46FF0800101612046FFF746FE2068E0
:101DC0000169C943490609D4C168C943490605D414
:101DD0006FF040010161204600F04EF82068016973
:101DE000C94389060BD4C168C943890607D46FF07B
:101DF000200101612046BDE87040FFF727BE70BD9D
:101E00007047704710B5044600681949884201D1EF
:101E1000FFF72AF82068B0F1804F27D1154801213B
:101E200090F8672062B190F86520521CD2B280F819
:101E30006520082A04D3002280F8672080F8681003
:101E4000D0F8E82040F21A44521CC0F8E820D0F83C
:101E5000EC305B1CC0F8EC30A24201DD80F8F010E1
:101E600040F2D662934201DD80F8F11010BD00000F
:101E700000080040041E00207047704770470000B3
:101E8000F8B5016804460868CA684B6910F00F0F7E
:101E90004FF0000559D003F0010602F49077374364
:101EA00065D0C10705D0D10503D5616C41F00101B2
:101EB0006164410705D5D90703D0616C41F0020187
:101EC0006164810705D5D90703D0616C41F0040135
:101ED0006164010707D502F02001314303D0616C32
:101EE00041F008016164616C00293AD0800604D594
:101EF000900602D5204601F01EFE20684069616C04
:101F0000C0F38010090700D460B3204601F0ECFD57
:101F100020684069400621D52068143050E8001F31
:101F200021F0400140E80012002AF5D1E06BA8B191
:101F30006D494163E06BFEF739FE002811D0E06B7C
:101F4000416B01B0BDE8F040084783060FD593060A
:101F50000DD52046BDE8F84001F0EDBD2046FFF765
:101F60008DFFF8BD2046FFF789FF6564F8BD266B3D
:101F70002023012E7CD1C6067AD5D60678D50868EE
:101F80004868009048694FF00206400640D5E16B72
:101F9000086840680004000CE8D0A28D8242E5D9B0
:101FA000E085886920282DD020680C3050E8001F7B
:101FB00021F4807140E80012002AF5D12068143025
:101FC00050E8001F21F0010140E80012002AF5D17D
:101FD0002068143050E8001F21F0400140E8001252
:101FE000002AF5D184F84230256320680C3050E88F
:101FF000001F21F0100140E80012002AF5D1E06B2B
:10200000FEF7B0FD6663A08DE18D401A81B22AE033
:10201000A08DE18D401A81B2E08D0028A6D0002964
:10202000A4D022680C3252E8000F20F4907042E8ED
:102030000007002FF5D12068143050E8002F22F05F
:10204000010240E80027002FF5D184F842302563D3
:1020500020680C3050E8002F22F0100240E80023E6
:10206000002BF5D166632046FFF707FFF8BDFFE7B9
:1020700005062BD5150629D594F841002128F5D160
:10208000A068B0F5805F01D12069B0B1206A411C21
:102090002162216800784860E08C401E0004000C3A
:1020A000E084E3D12068C16821F08001C16020682C
:1020B000C16841F04001C160D8E7206A0088C0F3E0
:1020C00008004860206A801C2062E5E74006CDD504
:1020D0005006CBD5CA68204622F04002CA6084F878
:1020E000413000F0EFF8C1E7D93A000870B50400BC
:1020F00004D094F84100002510B106E0012070BD25
:1021000084F84050204600F023F8242084F8410051
:102110002068C16821F40051C160204601F06CFDC7
:102120002068016921F4904101612068416921F032
:102130002A0141612068C16841F40051C1606564B1
:10214000202084F8410084F842006563002070BDBF
:1021500070B586B0002400940194029403942E4E2E
:1021600003682E49022003222D4DB34226D18B69EC
:1021700043F480438B618B6903F4804304938B6940
:1021800043F004038B618969039201F00401049117
:102190000102CDE9001069462846FEF765FD2815C5
:1021A000CDE90004694628460294FEF75DFD002251
:1021B00005212520FEF7F0FE252028E0194EB34228
:1021C00027D1CB6943F40033CB61CB6903F40033EF
:1021D00004938B6943F004038B618969039201F0D6
:1021E000040104910421CDE9001069462846FEF758
:1021F0003BFD0820CDE90004694628460294FEF71D
:1022000033FD002205212620FEF7C6FE2620FEF71C
:10221000B5FE06B070BD000000380140001002405D
:10222000000801400044004070472DE9F84304468F
:1022300090F841001F4616460D46202802D0022085
:10224000BDE8F8837DB176B100206064212084F878
:102250004100FEF703FEA6848046E684A068B0F540
:10226000805F02D003E00120EAE7206910B12E462A
:1022700000250EE000260CE08021204601F018FD2C
:10228000A0B9AEB116F8010B21684860E08C401E81
:10229000E084E08C43464FF0000200970028EBD129
:1022A0004FF04001204601F003FD30B10320C7E7A5
:1022B00035F8020BC0F30800E6E7202084F841005F
:1022C0000020BDE77047000010B5124C94F868007C
:1022D00000281ED094F86600801E81B2601C00F0B9
:1022E0006BFC94F86610621E635C895C03EB012151
:1022F00089B2884209D1607894F8E110884204D10B
:10230000A078032801D100F009F8002004F8660F36
:10231000A07010BD041E0020FEE7000070B50C4D3B
:10232000EE7806EBD67041100AA001F031FD0024D2
:1023300008E02819427901790EA002EB012301F08F
:1023400027FDA41CB442F4DB012085F8F20070BD27
:10235000041E0020B4D3BBFAB7B5BBD82025642037
:10236000B8F6BCC4B4E6C6F7CAFDBEDDA3BA0D0A12
:102370000000000054656D705F486269743D20255F
:10238000582054656D705F4C6269743D202558205B
:1023900074656D703D2025640D0A000010B5114C68
:1023A0000621601C00F008FC217AE27901EB022191
:1023B000884212D1617894F8E10081420DD1A07871
:1023C00006280AD1A079627900EB02232079E2780D
:1023D00000EB022204A001F0DBFC012084F8F300F2
:1023E00010BD0000041E0020B5D8D6B7CEAA202507
:1023F0006420B5C4B4D3BBFABCC4B4E6C6F7202588
:102400006420D6D0D0B4C8EBCAFDBEDD2025642040
:102410000D0A200070B5144C84F8E10004F8CD0FCB
:1024200003206070080AA070E170100A20710E4845
:1024300062710621CD3000F0BFFB010AA171E0718D
:102440006420CD3CFEF7FEFB0025601990F8CD001E
:1024500000F0D4FB6D1C082DF7DB0A20FEF7F2FB21
:10246000012084F8E20070BD041E002070B5134CFA
:1024700084F8E10004F8CD0F100A6170A070E270DA
:10248000180A20710D4863710621CD3000F094FBCD
:10249000010AA171E0710025CD3C601990F8CD00D2
:1024A00000F0ACFB6D1CADB2082DF6D30A20FEF790
:1024B000C9FB012084F8E30070BD0000041E002069
:1024C00070B501220B4DD40221462846FEF7C1FC0F
:1024D0000122160331462846FEF7BBFC0022314696
:1024E0002846FEF7B6FC21462846BDE8704000228B
:1024F000FEF7AFBC0008014070B5094C0122D102C3
:102500002046FEF7A6FCA514002229462046FEF729
:10251000A0FC29462046BDE870400122FEF799BC88
:102520000008014070B50122064DD402214628461C
:10253000FEF78FFC21462846BDE870400022FEF7DA
:1025400088BC0000000801402DE9F041144F04460A
:102550004FF40066002231463846FEF77AFC00252B
:102560004FF4805804F08000802816D000224146A5
:102570003846FEF76EFC6006040E012231463846EE
:10258000FEF767FC002231463846FEF762FC6D1C00
:10259000EDB2082DE6D3BDE8F0810122E7E70000A7
:1025A0000008014010B50446FFF78AFF7820FFF7C6
:1025B000CBFFFFF7B7FF0020FFF7C6FFFFF7B2FF23
:1025C0002046FFF7C1FFFFF7ADFFBDE81040FFF762
:1025D00093BF10B50446FFF773FF7820FFF7B4FFF1
:1025E000FFF7A0FF4020FFF7AFFFFFF79BFF20465C
:1025F000FFF7AAFFFFF796FFBDE81040FFF77CBF8B
:1026000008B500F0FBFF23480021009003231422AB
:10261000084600F01BFB1F480223AE300090242226
:102620000021142000F012FB1A4802238830009089
:1026300080220021702000F009FB164808233C305E
:10264000009014220621042000F000FB12480090A4
:1026500006231C2204210C2000F0F8FA0F480090F9
:10266000082358220221282000F0F0FA0A48062305
:102670002630009073220421632000F0E7FA054819
:102680000823623000907B2206216B2000F0DEFAE6
:1026900008BD0000A2060020D6010020820500200F
:1026A00008B50021102311A2084600F02AFE1023CD
:1026B00011A20221002000F024FE102312A2042106
:1026C000002000F01EFE1548009008231422062169
:1026D000042000F0BBFA11480823263000907B222A
:1026E00006216B2000F0B2FA08BD00004175746845
:1026F0006F723A3132330000446174653A323032DD
:10270000342F312F310000004C61623A204D756C3E
:1027100074692D6C6576656C00000000DE06002093
:1027200008B50021102311A2084600F0EAFD10238D
:1027300011A20221002000F0E4FD102312A20421C6
:10274000002000F0DEFD134800900823142206212B
:10275000042000F07BFA0F480823263000907B22EB
:1027600006216B2000F072FA08BD00004175746804
:102770006F723A3132330000446174653A3230325C
:10278000342F312F310000004C61623A2031323356
:1027900000000000DE06002010B50021102307A273
:1027A000084600F0AEFD102308A20221002000F030
:1027B000A8FD0A490220087010BD00006472697605
:1027C00065723A204C6967687473000053746174D1
:1027D00075733A204F70656E00000000A000002065
:1027E00010B5AAB01C2221496846FDF70BFD002157
:1027F000684602F0E4F81E4C1C491C2220601C3183
:1028000007A8FDF7FFFC002107A802F0D8F8174938
:1028100060601C2238310EA8FDF7F4FC00210EA8E0
:1028200002F0CDF81149A0601C22543115A8FDF723
:10283000E9FC002115A802F0C2F80C49E0601C2256
:1028400070311CA8FDF7DEFC00211CA802F0B7F8CF
:10285000064920611C228C3123A8FDF7D3FC0021FE
:1028600023A802F0ACF860612AB010BDE453000860
:10287000000000202DE9F04F85B00025324800957A
:10288000019502950395816941F01001816181698B
:1028900001F010010491816941F020018161816999
:1028A00001F020010491816941F004018161816995
:1028B00001F004010491816941F00801816180699E
:1028C000012200F00800DFF88490540304902146B0
:1028D0004846FEF7BEFADFF878A04FF47067002292
:1028E00039465046FEF7B5FADFF868B04FF4C058E5
:1028F000002241465846FEF7ACFA00940124032614
:10290000CDE90246694648460194FEF7ADF902203A
:102910000097CDE90140039069465046FEF7A4F9BF
:102920003801CDE90005694602945046FEF79CF94E
:1029300001AACDF8008082E8700069465846FEF78B
:1029400093F905B0BDE8F08F00100240001001407F
:10295000000C0140000801401CB500241A480194F5
:10296000184900940160611EC0E90114FEF734FFAC
:1029700008B1FEF756F814208DF804008DF80540D4
:1029800015208DF80600012201A90F48FEF7EAFF85
:1029900008B1FEF746F805208DF8000007208DF8F5
:1029A000010001208DF8020024208DF8030001228F
:1029B00069460548FEF774FF002801D0FEF731F89C
:1029C0001CBD000000280040980B002010B586B008
:1029D00000241848009401940294039404944FF046
:1029E0008041059401604721C0E9011440F2E731BC
:1029F000C0E9031480218161FFF75EF808B1FEF79A
:102A000010F84FF48050009069460A48FFF7D6F856
:102A100008B1FEF706F8049404A906480594FFF7E8
:102A200017F808B1FDF7FDFF0248FFF79BF806B065
:102A300010BD0000AC0B002010B586B00024184873
:102A40000094019402940394049414490594016041
:102A50004721C0E901144FF6FF71C0E9031480213A
:102A60008161FFF729F808B1FDF7DBFF4FF48050D3
:102A7000009069460A48FFF7A1F808B1FDF7D1FFB9
:102A8000049404A906480594FEF7E2FF08B1FDF797
:102A9000C8FF0348FFF766F806B010BD0004004009
:102AA000F40B002010B50E4C0C480C2120604FF4A4
:102AB000E13060600020A060E060C4E90401A06132
:102AC000E0612046FFF712FB08B1FDF7AAFF20687E
:102AD000C16841F02001C16010BD00000038014014
:102AE0003C0C00200C4810B50A4901604FF4E1315C
:102AF0004160002181600C22C160C0E90412816143
:102B0000C161FFF7F3FA002803D0BDE81040FDF7DC
:102B100088BF10BD00440040840C0020FEE7000088
:102B200070B501F02DFE234C062804F214750AD16D
:102B300060780B2807D000EB400005EB8000407860
:102B4000607000F066F801F01BFE02280AD1607880
:102B50000B2807D000EB400005EB80008078607008
:102B600000F057F801F00CFE07280AD160780B2816
:102B700007D000EB400005EB8000C078607000F0EB
:102B800048F801F0FDFD05280AD160780B2807D030
:102B900000EB400005EB80000079607000F039F830
:102BA000607800EB400005EB80008068E060BDE8E5
:102BB00070400047A000002070B5094DFF22134669
:102BC00005F5807606E000BF10F8014B54402A5D01
:102BD0005A40335D491E89B2F6D243EA022070BDE5
:102BE000E5650008044801210022017080F8672093
:102BF00080F8E11070470000041E002001B5FF239B
:102C0000012269460148FFF710FB08BD3C0C00207B
:102C1000FEE770B50024002104F1B00000F08CFB49
:102C20000021084600F088FB0021102000F084FB02
:102C300000250121002000F07FFB6D1CEDB2802DEE
:102C4000F7D3641CE4B2082CE5D370BD2DE9F0473E
:102C500098461746824600260C46DDF8209011E083
:102C60002146504600F0BEFA554607E019F8060026
:102C70000121761C00F060FB6D1CEDB2BD42F5D366
:102C8000641CE4B24445EBD3BDE8F0872DE9F05F66
:102C900005464FF000093A484FF005084F46012914
:102CA00007D085B1012D10D0022D10D0032D0ED0EC
:102CB0000EE08021016142460621002001F047FE1E
:102CC0008020BDE8F09F082702E0102700E01827C9
:102CD00000248246DAF81000002805DAC0F1000965
:102CE000A01DC1B2002002E0A11DC9B2C0B200F017
:102CF00079FAFFF7E5FB7820FFF726FCFFF712FCD7
:102D00004020FFF721FCFFF70DFC09F0FF06DFF87C
:102D100074B015E0DAF8100030447F2812DC04FBB0
:102D200007601DB3012D24D0022D25D01549603137
:102D300011F80000FFF708FCFFF7F4FB761CF6B271
:102D4000BE42E7DBFFF7D8FB641CE4B2022CC1D320
:102D5000DAF81000544638444246062101F0F7FDE7
:102D60002169A1EB080020614044AAE71BF800009C
:102D7000E0E704491031DBE702493031D8E70000D1
:102D80001C0900200D6100082DE9F047274C03269F
:102D90000025A0681827183010F1030F09DC8020E7
:102DA000A060FDF71DFA032190FBF1F201FB120078
:102DB0002070A068002805DA45422078401CC1B286
:102DC000002003E02178C0B2491CC9B200F00AFA21
:102DD000FFF776FB7820FFF7B7FBFFF7A3FB402058
:102DE000FFF7B2FBFFF79EFBA046DFF84490BC194B
:102DF00010E000BFD8F8080028447F280CDCBD4252
:102E000002DA19F8050000E00020FFF79DFBFFF74C
:102E100089FB6D1CAC42EDDCFFF76EFBD8F80810A7
:102E2000891BC8F80810BDE8F08700001C090020C5
:102E3000355F00082DE9F041174E184F7078401C9F
:102E400000F0010070700024A01DC1B2102000F03D
:102E5000C9F9FFF735FB7820FFF776FBFFF762FB38
:102E60004020FFF771FBFFF75DFB0025717805EB54
:102E7000041007EB4111085CFFF766FBFFF752FBFC
:102E80006D1CEDB2102DF1D3FFF736FB641CE4B2DC
:102E9000022CD9D3BDE8F0811C0900204D5F000849
:102EA0002DE9FE4346A300260ECB8DE80E00082335
:102EB000464D3146012808D02846EF78426980788F
:102EC0006C4647B1012F0CD014E06961E970AB701A
:102ED0000020BDE8FE83235C401E1A446A61A8708E
:102EE00008E0245C401C121BC0B26A61A87008286C
:102EF00000D9AB7068691F2804DB0120E8701F202F
:102F0000686110E0002802DCE97069610EE00728C2
:102F10000CDD0F2801DC012608E0172801DC022661
:102F200004E01F2801DC032600E00426DFF8A0806F
:102F30000024C6F1050900BF09EB0400C1B210204E
:102F400000F050F9FFF7BCFA7820FFF7FDFAFFF721
:102F5000E9FA4020FFF7F8FAFFF7E4FA5FF000071C
:102F6000686907EB0411C21700EB527222F00702E6
:102F7000801A00EB400208EB0210405CFFF7E4FA15
:102F8000FFF7D0FA7F1CFFB2102FE9D3FFF7B4FA96
:102F9000641CE4B2032CCFD3E87828B91022C6F120
:102FA0000801104601F0D3FCE878012805D1102271
:102FB000C6F10401104601F0CAFC686989E7000007
:102FC0000101030304040506070000001C0900209A
:102FD0008D5F00082DE9F041052640F255270721B5
:102FE000002000F0FFF8FFF76BFA7820FFF7ACFA4B
:102FF000FFF798FA4020FFF7A7FAFFF793FA0D4D75
:10300000DFF83480002468682044B0FBF7F107FB48
:10301000110118F80100FFF797FAFFF783FA641C13
:10302000E4B2802CEFD3FFF767FA68683044686039
:10303000BDE8F0811C090020E05C00082DE9F041AA
:103040000026184F02242146342000F0CBF8FFF769
:1030500037FA7820FFF778FAFFF764FA4020FFF795
:1030600073FAFFF75FFA0025B85D761CFFF76CFA7C
:10307000FFF758FA6D1CEDB2182DF5D3FFF73CFAA7
:10308000641CE4B2052CDED3102307A203210A201E
:1030900000F037F9BDE8F0411023032104A25620C7
:1030A00000F02FB99D61000847414D450000000028
:1030B0004F5645520000000070B50646002400211E
:1030C00004F1B00000F038F90021084600F034F9AE
:1030D0000021102000F030F900250121304600F0D9
:1030E0002BF96D1CEDB2802DF7D3641CE4B2082CD3
:1030F000E5D370BD10B56420FDF7A4FD0021AE201E
:1031000000F01AF90021084600F016F900211020FD
:1031100000F012F90021402000F00EF90021B0204B
:1031200000F00AF90021812000F006F90021FF20BB
:1031300000F002F90021A12000F0FEF80021A620F5
:1031400000F0FAF80021A82000F0F6F800213F2056
:1031500000F0F2F80021C82000F0EEF80021D320A2
:1031600000F0EAF80021084600F0E6F80021D5203A
:1031700000F0E2F80021802000F0DEF80021D820E5
:1031800000F0DAF80021052000F0D6F80021D9205F
:1031900000F0D2F80021F12000F0CEF80021DA2072
:1031A00000F0CAF80021122000F0C6F80021DB2050
:1031B00000F0C2F80021302000F0BEF800218D2080
:1031C00000F0BAF80021142000F0B6F80021AF207A
:1031D00000F0B2F86420FDF735FDBDE81040002096
:1031E000FFF76ABF10B50A460446002102F1B0009D
:1031F00000F0A2F8102040EA1410002100F09CF822
:1032000004F00F00BDE81040002100F095B8000068
:103210002DE9F041203A00240D468046D6B27F28A1
:1032200003D900208D1C8046EDB2102B294610D00A
:10323000FFF7D8FF164906EB460001EB40050121D8
:10324000285D00F079F8641CE4B2062CF7D3BDE8E1
:10325000F081FFF7C7FF0F4F04EB06100121385C28
:1032600000F06AF8641CE4B2082CF5D36D1CE9B2D6
:103270004046FFF7B7FF002404EB06103844012155
:10328000007A00F059F8641CE4B2082CF4D3DEE7AD
:10329000C8540008F05600082DE9F05F0026DDF85C
:1032A00028901D4692468B46804634464FEA590781
:1032B00023E0281B401EC1B20A2001F06CFBBAFBC0
:1032C000F0F00A21B0FBF1F201FB120026B9691EF1
:1032D0008C4201DA38B101263030C2B207FB0480DB
:1032E000C0B24B4604E007FB0480C0B24B4630221C
:1032F0005946FFF78DFF641CE4B2AC42D9D3BDE858
:10330000F09F2DE9F041984617460E4604460025E9
:103310000DE0434631462046FFF77AFF0834E4B219
:10332000782C02D90024B61CF6B26D1CEDB27A5D81
:10333000002AEED1BDE8F081C0B209B1FFF749B96A
:10334000FFF730B908B500F059F923480021009083
:10335000032314220846FFF779FC1F480223AE30EE
:103360000090242200211420FFF770FC1A48022349
:1033700088300090802200217020FFF767FC1648FB
:1033800008233C300090142206210420FFF75EFC45
:103390001248009006231C2204210C20FFF756FC43
:1033A0000F4800900823582202212820FFF74EFCE6
:1033B0000A48062326300090732204216320FFF779
:1033C00045FC05480823623000907B2206216B20D3
:1033D000FFF73CFC08BD0000A2060020D60100203B
:1033E00042030020010901EB810100F00F0000EB16
:1033F0004100C0B27047002102E00A38C0B2491C47
:103400000A28FAD2090740EA116070472DE9F04115
:1034100004460025C07B627BA37B42E0012A16D0D4
:10342000032A14D0052A12D0072A10D0082A0ED059
:103430000A2A0CD00C2A0AD0042A10D0062A0ED050
:10344000092A0CD00B2A0AD0022A0DD028E01F2B03
:103450000CD30C2A05D101221346401C20E01E2B60
:1034600004D30123521C1BE01C2B02D203F10103E5
:1034700016E011D183B29E0710D16426B3FBF6F794
:1034800006FB173636B94FF4C876B3FBF6F706FBE2
:1034900017331BB91D2303E01D2B01D10322012388
:1034A0006D1C8D42BAD3D1B2E0736173DAB2A273EC
:1034B00000F050F82073BDE8F08170B50446FDF7C8
:1034C000CDFC05464FF47A7606E0FDF7C7FC401BBD
:1034D000B04201D9032070BD206840688006F4D551
:1034E0002068416841F010014160002070BD00007B
:1034F00070B504460068416821F010014160FDF795
:10350000ADFC05464FF47A7607E000BFFDF7A6FC58
:10351000401BB04201D9032070BD2068406880067E
:10352000F4D5002070BD0168086A496A89B241EA91
:1035300000407047006881698AB2C1698BB28169B5
:1035400089B28A4203D0C06961F31F40704743EAE1
:1035500002407047F0B56424C1EBC1030927A50000
:10356000072603EB01130329B3FBF7F100F5FA601B
:10357000114401440AD2401EB0FBF4F201EB900169
:10358000B0FBF5F0891A0844001D08E0B0FBF4F226
:1035900001EB9001B0FBF5F0891A0844801CB0FBE8
:1035A000F6F106FB1100C0B2F0BD70B50D4606463F
:1035B0000024FFF782FF48B93168280C086231689F
:1035C000A8B248623046FFF793FF00B101242046BD
:1035D00070BD70B50D4606460024FFF76EFF48B972
:1035E0003168280C88613168A8B2C8613046FFF79D
:1035F0007FFF00B10124204670BD000038B50022D5
:1036000016491748FEF77BF814490022C91C1448D4
:10361000FEF74EF8114D102400942A780223002161
:103620002820FFF739FE10230EA200213920FFF7D2
:1036300068FE00946A78022300214220FFF72CFEE6
:10364000102308A200215320FFF75BFE0094AA7804
:10365000022300215D20FFF71FFE38BDA3000020DC
:10366000980B00203A00000010B50021102307A29B
:103670000846FFF746FE102308A202210020FFF7AC
:1036800040FE0A490120087010BD0000647269768E
:1036900065723A204C6967687473000053746174F2
:1036A00075733A20436C6F7365640000A0000020BE
:1036B00008B5FFF7A3FF244800210090032314223C
:1036C0000846FFF7C3FA20480223AE3000902422B8
:1036D00000211420FFF7BAFA1B480223883000901B
:1036E000802200217020FFF7B1FA174808233C30F0
:1036F0000090142206210420FFF7A8FA1348009036
:1037000006231C2204210C20FFF7A0FA1048009089
:103710000823582202212820FFF798FA0B48062395
:1037200026300090732204216320FFF78FFA0648A9
:103730000823623000907B2206216B20FFF786FA77
:1037400004490020087008BDA2060020D601002010
:1037500062040020A00000204FF47A740320FDF7DB
:1037600023F9204601F01FF9F8E700000B4C0C4E3E
:103770004FF4005594F8F2000028FBD060792179CD
:1037800000EB0122102A07D0092AF3D10122294691
:103790003046FDF75EFBEDE70022F8E7041E00204F
:1037A000001001405FF0000400F0EAFF102817D17C
:1037B000641C012C02D0022C09D011E04523022206
:1037C00006210120FEF752FEFEF7E8FD08E0502337
:1037D000022206210120FEF749FEFEF7DFFD00244C
:1037E000142001F0E0F8DFE7FFF79AF9142001F068
:1037F000DAF8F9E70B4C002594F8F0000028FBD02C
:10380000042200210120FEF705FE94F8E2000028C2
:10381000F2D0C4F8E85084F8F05084F8E250FEF793
:1038200053FDE9E7041E0020642001F0BCF8FBE72B
:1038300010B5502080F31188BFF34F8FBFF36F8F07
:1038400001F00AFD18B104494FF0805008600020D3
:1038500080F3118810BD000004ED00E070B594B055
:1038600028216846FCF7E7FC14210AA8FCF7E3FCD2
:1038700000250F95092001241095009011951295AF
:103880004FF4803004940694CDE901050226CDE979
:1038900007604FF4E01009906846FDF779FD08B124
:1038A00072B6FEE70F20CDE90A064FF48060CDE93D
:1038B0000C5002210AA80E95FDF76EFC08B172B6F5
:1038C000FEE74FF40070CDE90F400FA8FDF7EEFBC7
:1038D000002801D072B6FEE714B070BD704700003A
:1038E0000148FEF7DAB90000AC0B00200148FEF7F2
:1038F000D4B90000CC0C0020F0B50268164B174C70
:10390000174D4FF08047984205D0B84203D0A042EF
:1039100001D0A84203D122F070064A68324398428F
:1039200005D0B84203D0A04201D0A84203D122F46E
:103930004074CA6822434C6922F08002224302602C
:103940008A68C2620A688262984201D10969016389
:1039500001214161F0BD0000002C01400004004045
:103960000008004010B5846842EA032224F47F4432
:103970000A432243826010BD826822F070020A432B
:1039800042F007018160704710B5036A046A24F0B1
:1039900001040462846924F0F00444EA021423F070
:1039A0000A020A438461026210BD10B5036A046A08
:1039B00024F010040462846923F0A00324F470440A
:1039C00044EA023243EA01118261016210BD000043
:1039D00008B5FFF713FE23480021009003231422AB
:1039E0000846FFF733F91F480223AE300090242227
:1039F00000211420FFF72AF91A480223883000908A
:103A0000802200217020FFF721F9164808233C305E
:103A10000090142206210420FFF718F912480090A4
:103A200006231C2204210C20FFF710F90E4808235E
:103A30004C300090582202212820FFF707F90A484D
:103A4000062326300090732204216320FFF7FEF83E
:103A500004480823623000907B2206216B20FFF788
:103A6000F5F808BDA2060020D601002008B5FCF735
:103A7000BDFE094800900823142206210420FFF708
:103A8000E5F805480823263000907B2206216B20AC
:103A9000FFF7DCF808BD0000DE0600200D4900221B
:103AA0000B685A620A68136843F0010313600968DF
:103AB0004A6A8242FCD3086A41F21112104207D1CD
:103AC000086A9210104203D1086820F001000860D3
:103AD00070470000F40B002010B5406A0021C1853A
:103AE000C184FEF7CBF910BD01680C3151E8002FFD
:103AF00022F4907241E80023002BF5D101681431C3
:103B000051E8002F22F0010241E80023002BF5D1FB
:103B1000016B012909D101680C3151E8002F22F015
:103B2000100241E80023002BF5D1202180F842103B
:103B300000210163704708B590F84210222901D096
:103B4000022008BD82684FF480539A4201D1016976
:103B500021B1816A9A421BD04AB10AE00268816AA7
:103B60005268C2F308020A80816A891C08E002696F
:103B700072B10268526802F07F020A70816A491CC1
:103B80008162C18D491E0904090CC18503D01BE067
:103B900002685268F1E70168CA6822F02002CA6030
:103BA0000168CA6822F48072CA6001684A6922F01A
:103BB00001024A61202180F8421000214163026B1A
:103BC000012A03D0FEF730FB002008BD0163016825
:103BD0000C3151E8002F22F0100241E80023002BA5
:103BE000F5D101680A68D20602D50A6849680091D1
:103BF000818DFEF742F9E7E770B504460068016978
:103C0000E26821F44051114301612169A068084331
:103C1000616908432168CA6841F20C639A43024310
:103C2000CA6020684169A26921F440711143416171
:103C30001E492068884202D1FDF774FB01E0FDF7C0
:103C400061FB00EBC00101EB0012606864218000A1
:103C5000B2FBF0F3B3FBF1F36FF018067343B2FB62
:103C6000F0F5B2FBF0F605EB8305322303EB051507
:103C7000B5FBF1F5B6FBF1F605F0F00505EB061521
:103C8000B2FBF0F6B2FBF0F0B0FBF1F06FF018020F
:103C9000504306EB800003EB0010B0FBF1F021680D
:103CA00000F00F002844886070BD0000003801401B
:103CB0002DE9F041984617460E460446069D27E03A
:103CC000681C25D02DB1FDF7C9F8A0EB0800A8426B
:103CD0001ED920680C3050E8001F21F4D07140E854
:103CE0000012002AF5D12068143050E8001F21F09E
:103CF000010140E80012002AF5D1202084F841009B
:103D000084F84200002084F840000320BDE8F081E0
:103D10002068006836EA000004D00020B842CFD006
:103D20000020F3E70120F9E710B51248FEF7A8F8E4
:103D3000104800680168C9438A060F4901D44068E9
:103D400008700E4890F86820012A11D00A7890F87F
:103D50006630411C5A5490F866100022491CC9B2C2
:103D600080F8661080F86520012901D180F867107D
:103D700010BD00003C0C002034090020041E00206F
:103D80000148FEF77DB80000840C0020FEE700002B
:103D90000FB4054B10B503A9044A029800F0EAF8E5
:103DA00010BC5DF814FB0000C94600084009002063
:103DB0000907090E002804DB00F1E02080F8001458
:103DC000704700F00F0000F1E02080F8141D7047EC
:103DD00002E008C8121F08C1002AFAD170477047D4
:103DE000002001E001C1121F002AFBD17047000032
:103DF0002DE9FF5F82B00021DDE90430020DDDF81E
:103E000040B0034318D044F61050A2F2FF324243B0
:103E10001514119801281FD0A5EB0B00401C5FEA78
:103E2000000A4FF000064E4FDFF83891B04650467A
:103E300015D5CAF1000413E0119801244AA3012802
:103E400001D16FEA0B010298119AC0E90031C0E973
:103E5000024206B0BDE8F09FCBF10000DFE7044668
:103E60000021404A491842EB0450CDE9001012E00D
:103E7000E00707D032463B4640464946FCF7E7FAA2
:103E80008046894632463B4610461946FCF7DFFA23
:103E900006460F466410002CEAD1DDE90401DDE995
:103EA0000023BAF1000F06DAFCF7D1FA42464B467E
:103EB000FCF7CDFA05E0FCF73CFB42464B46FCF72D
:103EC00038FB04460E460022284BFCF7B9FB03D80A
:103ED0004FF0FF30014607E00022254B20463146D7
:103EE000FCF70EFAFCF794FB102409E0002C0ADB27
:103EF0000A220023FCF7D3F9039B30321A55641EC3
:103F000050EA0102F2D1641C039AC4F11103144473
:103F1000119A012A03D0012208430DD10AE0084377
:103F200004D000204FF0110B119072E7A3EB0B05AA
:103F30006D1E0DE05B4504DD4FF0000205F101054B
:103F400004E003DA4FF00002A5F10105002AECD0ED
:103F500002981199C0E90231C0E9004579E70000F3
:103F6000000014400000F03F300000000000F0436B
:103F70000000E03F2DE9FF4F95B09A46884606467F
:103F80000025EEE1252877D100242746F94A0121B2
:103F9000039400E0044316F8013F203B01FA03F0CC
:103FA0001042F7D130782A2811D06FF02F033078E3
:103FB000A0F13002092A16D8039A44F0020402EB59
:103FC000820203EB42021044761C0390EFE758F89C
:103FD000042B0392002A03DA504244F40054039065
:103FE00044F00204761C30782E2816D116F8010F02
:103FF00044F004042A280DD06FF02F023078A0F18D
:104000003003092B09D807EB870302EB4303C718DA
:10401000761CF3E758F8047B761C30786C280FD0B8
:1040200006DC4C2817D068280DD06A2814D104E08B
:10403000742810D07A280FD10DE044F400140AE05F
:1040400044F4801401E044F440147278824202D1B6
:1040500004F58014761C761C307866280BD013DCAF
:10406000582877D009DC002875D04528F6D0462896
:10407000F4D047281AD193E118E0632835D064289A
:1040800079D0652812D18BE1702873D008DC6728BD
:10409000F1D069286FD06E280DD06F2806D1ACE022
:1040A00073282CD0752874D0782853D0524617998D
:1040B00090476D1C54E1C4F30250022809D0032834
:1040C0000DD0D8F8001004280DD00D6008F10408B8
:1040D00046E1D8F80010EA17C1E90052F6E7D8F82F
:1040E00000100D80F2E70D70F0E718F8041B8DF852
:1040F000001000208DF80100EB46012003E058F885
:1041000004BB4FF0FF3061074FF0000102D40DE017
:1041100009F101018946B9420FDA8145F8DB1BF844
:1041200009100029F4D108E009F101018946814212
:10413000FADB1BF809100029F6D103985346A0EBCF
:10414000090721463846179A00F080FA284400EB08
:10415000090507E044E008E10DE01BF8010B5246B9
:1041600017999047B9F10109F7D2534621463846CD
:10417000179AF2E039E00A21C4F302524FF0000B23
:104180000091022A06D058F8040BC117032A09D05F
:104190000AE023E008F1070020F00702F2E802013C
:1041A000904605E000B2C117042A01D140B2C11700
:1041B000002906DA0A460021404261EB02012D2265
:1041C00002E0220504D52B228DF80420012203E011
:1041D000E20701D02022F7E7914657E00A2100E0EC
:1041E00010214FF0000B00910BE010214FF0000B5D
:1041F00044F004040827009103E008204FF0000B6E
:104200000090C4F30252022A05D058F8040B002192
:10421000032A08D008E008F1070020F00702F2E8BE
:104220000201904603E080B2042A00D1C0B24FF0F0
:10423000000922072AD53278702A07D0DDF800C09D
:104240008CF0100C5CEA0B0C05D00EE040228DF8CF
:104250000420012208E050EA010306D030238DF843
:1042600004308DF8052002229146009B83F008035C
:1042700053EA0B030AD150EA010201D1620705D5C6
:1042800030228DF804204FF001097F1E3278582A21
:1042900004D039A20C920CAA02920BE03BA2F9E7DF
:1042A0005B46009AFBF7FBFF0C9B9B5C029A521E3D
:1042B0000292137050EA0102F2D1029804A9081A7E
:1042C00000F1200B600702D524F4803400E00127C0
:1042D0005F4502DDA7EB0B0000E0002000EB0B01C7
:1042E000009003984944401A0390E00306D45346D3
:1042F0002146179A039800F0A9F90544002706E023
:1043000001A85246C05D179990476D1C7F1C4F4510
:10431000F6DBE0030CD553462146179A039800F0CC
:1043200095F9054404E030205246179990476D1CDA
:104330000099481E00900029F5DC08E002980299D7
:1043400052460078491C0291179990476D1CBBF1A9
:104350000001ABF1010BF1DC5BE100F065F9054414
:10436000761C307800287FF40DAE19B02846BDE8E1
:10437000F08F0000092801003031323334353637F0
:1043800038396162636465660000000030313233A1
:104390003435363738394142434445460000000041
:1043A000600700D4062708F1070020F00700F0E8B6
:1043B0000223804603F0004C5FEA0C0001D097A076
:1043C00009E0200501D596A005E0E00701D095A001
:1043D00001E0AFF24C001390307823F000436528E1
:1043E0000CD006DC452809D046281DD047287FD1AF
:1043F0003BE0662818D067287AD136E00021112FDB
:1044000001DB112000E0781CCDE9000104A90CA813
:10441000FFF7EEFCDDE90D010C9A4FF0000B07F100
:104420000109109200914EE04FF000400097CDE955
:10443000011004A90CA8FFF7DBFCDDE90D020C9BC1
:104440000F994FF0000B91461093009211B9791C0F
:1044500000EB0109B7EB090003D4C0F1FF3B07F102
:104460000109A9EB0700019042E0012F00DA0127C2
:104470000021112F01DD112000E03846CDE90001B7
:1044800004A90CA8FFF7B4FCDDE90D010C9A00911A
:104490004FF0000BB946109221070FD4009A4A45FD
:1044A00003DA914601E0A9F10109B9F1010F05DD37
:1044B000109AA9F10101515C3029F4D0B84202DA16
:1044C00010F1040F03DA0121CDE9011010E00028FA
:1044D00003DC8344A9EB000102E0411C494500DDF7
:1044E0008946A0EB0B00401C01904FF00040029069
:1044F000200705D40198484502DB4FF0FF300190BA
:1045000000208DF84B0002980DF14B07B0F1004FE1
:1045100025D002200C902B200D90029800280CDA58
:10452000404202902D200D9007E00A210298FBF7EF
:10453000A0FE3031029007F8011D0C99481E0C9026
:104540000029F2DC02980028EFD1791E0D9808703E
:10455000307800F0200040F0450007F8020D11A867
:10456000C01BC01D02901398007800B1012000EB21
:104570000901019801EBE071029801440398401A87
:10458000401E0390E00306D453462146179A039831
:1045900000F05CF805441398007818B1524617995A
:1045A00090476D1CE00323D553462146179A039884
:1045B00000F04CF805441BE0BBF1000F07DB00984E
:1045C000584504DD1098179910F80B0001E0179971
:1045D00030205246904701980BF1010B401E05F127
:1045E0000105019004D12E205246179990476D1C69
:1045F000B9F10001A9F10109DEDC05E017F8010BB2
:104600005246179990476D1C0299481E0290002946
:10461000F4DC53462146179A03989EE62D000000CD
:104620002B000000200000002DE9F0410446002589
:104630001E461746880404D405E039462020B047BA
:104640006D1C641EF9D52846BDE8F0812DE9F041C6
:10465000044600251E469046C80301D5302700E0D9
:104660002027880404D505E041463846B0476D1C34
:10467000641EF9D52846BDE8F08170B505460024D2
:104680004FF47A7603E0304600F004F8641CAC4244
:10469000F9D370BD70B54FF0E02400226569094977
:1046A000A36909684843A1699942FCD002D2A3EBEF
:1046B000010302E0A5EB010633441A440B46824293
:1046C000F1D370BD3809002013B54FF6FF730122F6
:1046D00069460248FDF7A9FD00981CBD840C002026
:1046E00008B5FEF78BFF2348002100900323142216
:1046F0000846FEF7ABFA1F480223AE300090242292
:1047000000211420FEF7A2FA1A48022388300090F4
:10471000802200217020FEF799FA164808233C30C9
:104720000090142206210420FEF790FA124800900F
:1047300006231C2204210C20FEF788FA0F48009063
:104740000823582202212820FEF780FA0A4806236F
:1047500026300090732204216320FEF777FA054883
:104760000823623000907B2206216B20FEF76EFA50
:1047700008BD0000A2060020D6010020B0000020E5
:104780002DE9F041604D0024A0462C604FF47E4797
:104790002F602E1F3068C0F303300F281AD032204C
:1047A000FFF76BFF3068C0F303300F2812D030687A
:1047B00000F47E402968B942FCD1B0F5FC4F7DD0B1
:1047C000B0F53E4F7BD0B0F55E4F7FD0B0F56E4F69
:1047D0007AD000244746C5F800804FF47D48C5F8DC
:1047E00000803068C0F303300F281BD03220FFF761
:1047F00044FF3068C0F303300F2813D030684146BF
:1048000000F47D402A688A42FCD1B0F5FA4F69D0A5
:10481000B0F53D4F64D0B0F55D4F5FD0B0F56D4F52
:104820005AD000242F604FF47B48C5F800803068D0
:10483000C0F303300F281BD03220FFF71EFF306873
:10484000C0F303300F2813D03068414600F47B409A
:104850002A688A42FCD1B0F5F64F4BD0B0F53B4FF9
:1048600046D0B0F55B4F41D0B0F56B4F3CD0002443
:104870002F604FF477472F603068C0F303300F2864
:104880001AD03220FFF7F9FE3068C0F303300F284A
:1048900012D0306800F477402968B942FCD1B0F5F5
:1048A000EE4F2FD0B0F5374F2AD0B0F5574F25D067
:1048B000B0F5674F20D00024204603E00AE007E06F
:1048C00004E001E0BDE8F081012483E7022481E7F0
:1048D00003247FE704247DE70524A3E70624A1E75A
:1048E00007249FE708249DE70924C1E70A24BFE7BE
:1048F0000B24BDE70C24BBE70D24DDE70E24DBE72A
:104900000F24D9E71024D7E70C0C0140FCF7B4FAC8
:10491000FEF7A4FFFDF7AEFFFEF7E4F8FEF71CF884
:10492000FEF78AF8FEF752F8FEF7BCF8FEF75AF9E0
:10493000FEF7E0FBFEF76DF9FDF752FF00F03AF8E5
:10494000FEE701460020842900D0C81C704770B5DE
:1049500005461646C9B2C0B2FEF744FCFDF7B0FDED
:104960007820FDF7F1FDFDF7DDFD4020FDF7ECFDC2
:10497000FDF7D8FD002408E02819802807D800207A
:10498000FDF7E2FDFDF7CEFD641CB442F4D3BDE8B3
:104990007040FDF7B1BD0246012000E05043491EC2
:1049A000C9B2FBD2704710B500B9012000F016FB68
:1049B000002010BD10B500F037FB002010BD7FB502
:1049C0000D4604464169B0F9080081B1A16971B191
:1049D000FFF7B7FFD4E905128DE80700D4E900100E
:1049E0002B46226900F00DFC039004B070BDFFF768
:1049F000A8FF03A9CDE90001208A2B4682B2D4E9A1
:104A0000001000F0D1FB012801D00020EDE7039851
:104A1000EBE700002DE9F041184C0F4605466669AA
:104A20002068001D00F016FA38B9206890F82C10A4
:104A300001208840A1698143A161681C07D137B179
:104A40002168BDE8F0410E48091D00F047BA206812
:104A50003544B5424560216805D2A068BDE8F04103
:104A6000091D00F023BA6068091D00F01FFA206BD1
:104A7000854200D22563BDE8F081000028000020B7
:104A8000F00D00202DE9F041054600F033FA2E4CE0
:104A90002069401C206120682C4F10B1E06940B3B0
:104AA0002DE025602069012829D1002606EB86002B
:104AB00007EB800000F0ECF9761C072EF6D32348B4
:104AC0008C3000F0E5F92148A03000F0E1F91F48F2
:104AD000B43000F0DDF91D48C83000F0D9F91B48AA
:104AE000DC3000F0D5F919488C3060601430A060DB
:104AF00005E02068E96AC06A884200D82560E06A5B
:104B0000401CE062E96A0120A26988401043A0616C
:104B100001EB810007EB8000291D00F0DFF900F0B8
:104B200009FAE06900280CD02068E96AC06A884266
:104B300007D207494FF080500860BFF34F8FBFF393
:104B40006F8FBDE8F081000028000020140D0020C8
:104B500004ED00E010B5044690F8510058B101286A
:104B60000CD002280FD0502080F31188BFF34F8F54
:104B7000BFF36F8FFEE7206B00F0F0F92046BDE831
:104B8000104000F0EBB910BD10484FF480514207BF
:104B900006D0C01D0D4920F00700411AC1F5805113
:104BA0000B4A00230144C2E900030839103A21F0FE
:104BB000070111604B600B600B1AC0E90013936092
:104BC0004FF000405360D06070470000040E00209A
:104BD00074000020144E154CA6F1C8074FF0805801
:104BE000DFF84C9012E000BF00F084F9F068C5686F
:104BF000281D00F02FF92069401E2061E068401E4A
:104C0000E06000F097F92846FFF7A4FFE06800286D
:104C1000EAD138680128F9D9C9F80080BFF34F8F6D
:104C2000BFF36F8FF2E70000DC0D002028000020AA
:104C300004ED00E02DE9F0479A46DDE9098481465C
:104C40006FF00303206B03EB82021044089D20F0F9
:104C50000706700707D0502080F31188BFF34F8FED
:104C6000BFF36F8FFEE723180A5C83F834200A5CD9
:104C700012B1401C1028F6D3002784F84370072D8A
:104C800000D30625E562C4E91157201D00F00BF999
:104C900004F1180000F007F92461C5F1070064620F
:104CA000A061E76484F8507052464946304600F0EF
:104CB000BFF82060B8F1000F01D0C8F80040BDE88F
:104CC000F087000030B5114900E011460A688242C1
:104CD000FBD34B685C18844203D140681844486099
:104CE000084643681C18944209D1084C103C2468BB
:104CF000A24209D052681A4442600A6812680260EF
:104D0000814200D0086030BD0460F9E774000020E3
:104D100006484168096829B14168C968C968496895
:104D2000016370474FF0FF31FAE7000028000020D0
:104D300008484068401C4FF0500080F3118804D0B0
:104D4000BFF34F8FBFF36F8FFEE7BFF34F8FBFF3FC
:104D50006F8FFEE77C0000202DE9F041054600271B
:104D600000F098F9314E306808B9FFF70DFFF06890
:104D700005424BD1C5B3083568070ED005F00700D2
:104D8000C0F108000544680707D0502080F311885F
:104D9000BFF34F8FBFF36F8FFEE72DB3706885426F
:104DA00034D82248103001460C6801E020460C46F9
:104DB0006168A94202D221680029F7D131688C428A
:104DC00024D007682168016060680837411B1029FA
:104DD0000FD96019420708D0502080F31188BFF323
:104DE0004F8FBFF36F8FFEE710E041606560FFF704
:104DF00069FF61687068401A7060B268904200D2C2
:104E0000B060F06801430020C4E9000100F088FAB6
:104E1000780707D0502080F31188BFF34F8FBFF37E
:104E20006F8FFEE73846BDE8F08100006400002087
:104E300010B5031F4FF080741C601B1F21F001018F
:104E40001960191F024B0B60143940380A6010BDFD
:104E5000314D0008D0E9013201699A60D0E901239F
:104E60005A604A68824201D182684A600022026127
:104E70000868401E0860086870470000034B036024
:104E800003F154000860802010607047440900203E
:104E900000F108014FF0FF32C0E90112C160016169
:104EA00000210160704700210161704730B50B6837
:104EB0005A1C02D000F1080202E0026904E0224616
:104EC000546825689D42FAD953684B6099608A609E
:104ED000516008610168491C016030BD42684A6048
:104EE00093688B6093685960916008610168491C00
:104EF00001607047502080F31188BFF34F8FBFF3DC
:104F00006F8F0A494868401C486001280CD1084846
:104F1000006810F0FF0F07D0502080F31188BFF316
:104F20004F8FBFF36F8FFEE7704700007C000020BB
:104F300004ED00E00849486828B1401E486001D1EE
:104F400080F311887047502080F31188BFF34F8F92
:104F5000BFF36F8FFEE700007C00002070B50028D3
:104F600027D0144DA0F108046168E868014207D118
:104F7000502080F31188BFF34F8FBFF36F8FFEE790
:104F800022683AB1502080F31188BFF34F8FBFF3EE
:104F90006F8FFEE78143616000F07CF860686968AC
:104FA000084468602046FFF78DFEBDE8704000F0C1
:104FB000B7B970BD640000204FF0E020002101610E
:104FC000816105494FF47A720968B1FBF2F1491E1B
:104FD00041610721016170472400002010B50200E3
:104FE00014D00F48806B38B1502080F31188BFF384
:104FF0004F8FBFF36F8FFEE700F04CF80021104693
:10500000FFF708FD00F08CF9002807D105494FF0A3
:1050100080500860BFF34F8FBFF36F8F10BD00004B
:105020002800002004ED00E010B586B000240394B1
:1050300005AA04A903A80494FFF720FFDDE90301F2
:105040000094CDE9011000230EA11048059A00F04C
:10505000D8F80F490028486311D0502080F31188F8
:10506000BFF34F8FBFF36F8F4FF0FF300863012006
:10507000C8614C6106B0BDE8104000F041B806B010
:1050800010BD000049444C4500000000D54B00080D
:10509000280000200248816B491C81637047000092
:1050A000280000201448816B11B101214162704732
:1050B000002141628169B1FA81F1C1F11F0101EB67
:1050C00081020E4951F822306BB101EB820101F1EE
:1050D00008034A6852684A609A4201D152684A609D
:1050E000D16801607047502080F31188BFF34F8F63
:1050F000BFF36F8FFEE7000028000020140D002092
:105100001CB5264908780190FF20087008788DF8B2
:1051100000009DF800009DF8002000F0F000904293
:1051200007D0502080F31188BFF34F8FBFF36F8FEC
:10513000FEE79DF800001A4B00F0500018700720A1
:10514000986005E09DF8002052008DF80020401E78
:105150009DF800201206F5D49860032807D050204F
:1051600080F31188BFF34F8FBFF36F8FFEE74FF4CB
:1051700040709860019808700A48016841F4700115
:105180000160016841F070410160FFF715FF0020E8
:105190005860FAF7C9FF00201CBD000000E400E0E1
:1051A0007C00002020ED00E02DE9FF5F8346DDE973
:1051B0000E87994616468A469000FFF7CDFD0500FA
:1051C0001CD05420FFF7C8FD040014D00020256334
:1051D00084F85100CDE90240CDE900874B463246C4
:1051E00051465846FFF726FD2046FFF74BFC0120AD
:1051F00004B0BDE8F09F2846FFF7B0FE4FF0FF3047
:10520000F6E7F0B585B0DDE90B640A9DA6B1DCB127
:10521000542700972663022684F85160002604AFC5
:10522000CDE90246CDE90057FFF704FD2046FFF720
:1052300029FC049805B0F0BD502080F31188BFF31D
:105240004F8FBFF36F8FFEE7502080F31188BFF3BD
:105250004F8FBFF36F8FFEE72DE9F0412E4C0027F3
:10526000A06B40B1206A401C2062606A00B1012737
:105270003846BDE8F0816669761C666113D16068C6
:10528000006838B1502080F31188BFF34F8FBFF30F
:105290006F8FFEE76068A1686160A060A06A401C33
:1052A000A062FFF735FD206BDFF87080864209D3DE
:1052B0006068006880B16068C068C56868688642D8
:1052C0000DD220632068C06A00EB800158F82100ED
:1052D0000128CAD90127C8E74FF0FF30F1E7281DA0
:1052E000FFF7B8FDA86A18B105F11800FFF7B2FD85
:1052F000E86A0121A26981401143A16100EB8001AC
:1053000008EB8100291DFFF7E9FDE86A2168C96AF9
:105310008842CDD30127CBE728000020140D0020C0
:105320002DE9F0472C4D00242746A86B38B1FFF734
:10533000E1FDA86B401EA863A86B40B146E0502079
:1053400080F31188BFF34F8FBFF36F8FFEE729699A
:10535000224E0120D1B3A6F1B40980463068E8B1ED
:10536000F068C46804F11800FFF774FD201DFFF712
:1053700071FDE06AAA6908FA00F11143A96100EB26
:10538000800109EB8100211DFFF7A8FDE06A296873
:10539000C96A8842E2D3C5F82480DFE70CB1FFF781
:1053A000B7FC2C6A44B14646FFF756FF00B16E6267
:1053B000641EF9D100202862686A38B108490127C3
:1053C00038070860BFF34F8FBFF36F8FFFF7B2FD51
:1053D0003846BDE8F087000028000020C80D0020F6
:1053E00004ED00E0F86700086D370008FDFF0000DD
:1053F000000000008000000000000000000000002D
:105400001C680008E9370008FDFF000000000000EC
:10541000800000000000000000000000106800088C
:10542000F5370008FDFF00000000000080000000CC
:10543000000000000000000028680008A5370008F0
:10544000FDFF0000000000008000000000000000E0
:10545000000000000468000829380008FDFF000073
:1054600000000000800000000000000000000000BC
:10547000E867000859370008FDFF00000000000041
:105480008000000000000000000000000102020394
:105490000405060708090A0B0C0D0E0F1010010277
:1054A00002030405060708090A0B0C0D0E0F101065
:1054B00000000000000000000102030406070809C4
:1054C00000000000010203040000000000000000D2
:1054D000002F000000000700070000147F147F1455
:1054E00000242A7F2A1200626408132300364955DB
:1054F000225000000503000000001C2241000000B3
:1055000041221C000014083E08140008083E080848
:10551000000000A0600000080808080800006060A3
:105520000000002010080402003E5149453E0000E2
:10553000427F4000004261514946002141454B31C4
:10554000001814127F10002745454539003C4A4990
:105550004930000171090503003649494936000602
:105560004949291E0000363600000000563600006A
:1055700000081422410000141414141400004122E5
:10558000140800020151090600324959513E007CBD
:105590001211127C007F49494936003E41414122A7
:1055A000007F4141221C007F49494941007F090990
:1055B0000901003E4149497A007F0808087F000040
:1055C000417F4100002040413F01007F08142241FB
:1055D000007F40404040007F020C027F007F0408B3
:1055E000107F003E4141413E007F09090906003E0F
:1055F0004151215E007F0919294600464949493138
:105600000001017F0101003F4040403F001F20405A
:10561000201F003F4038403F006314081463000718
:105620000870080700615149454300007F4141006F
:1056300000552A552A55000041417F00000402010F
:1056400002040040404040400000010204000020ED
:1056500054545478007F484444380038444444202B
:1056600000384444487F00385454541800087E09D8
:1056700001020018A4A4A47C007F080404780000A0
:10568000447D4000004080847D00007F102844005D
:105690000000417F4000007C04180478007C08046E
:1056A000047800384444443800FC242424180018AA
:1056B000242418FC007C0804040800485454542096
:1056C00000043F444020003C4040207C001C20401F
:1056D000201C003C4030403C004428102844001C62
:1056E000A0A0A07C004464544C441414141414145A
:1056F00000000000000000000000000000000000AA
:10570000000000F80000000000000033300000003E
:1057100000100C06100C0600000000000000000045
:1057200040C07840C0784000043F04043F040400B7
:10573000007088FC08300000001820FF211E0000C7
:10574000F008F000E018000000211C031E211E00DC
:1057500000F00888700000001E2123241927211062
:1057600010160E0000000000000000000000000005
:10577000000000E0180402000000000718204000AC
:1057800000020418E000000000402018070000009C
:10579000404080F0804040000202010F0102020000
:1057A000000000F0000000000101011F01010100E4
:1057B000000000000000000080B070000000000049
:1057C00000000000000000000001010101010101D2
:1057D0000000000000000000003030000000000069
:1057E000000000008060180400601806010000003E
:1057F00000E010080810E000000F102020100F003B
:10580000001010F8000000000020203F20200000C1
:105810000070080808887000003028242221300019
:1058200000300888884830000018202020110E0021
:105830000000C02010F8000000070424243F2400CA
:1058400000F80888880808000019212020110E009F
:1058500000E0108888180000000F112020110E00B1
:1058600000380808C83808000000003F00000000A9
:105870000070880808887000001C222121221C006A
:1058800000E010080810E0000000312222110F0093
:10589000000000C0C0000000000000303000000028
:1058A0000000008000000000000080600000000098
:1058B00000008040201008000001020408102000B1
:1058C00040404040404040000404040404040400FC
:1058D0000008102040800000002010080402010091
:1058E000007048080808F000000000303601000091
:1058F000C030C828E810E0000718272423140B0044
:105900000000C038E0000000203C230202273820BD
:1059100008F8888888700000203F202020110E00A1
:10592000C030080808083800071820202010080098
:1059300008F808080810E000203F202020100F0081
:1059400008F88888E8081000203F2020232018004D
:1059500008F88888E8081000203F200003000000B5
:10596000C03008080838000007182020221E020056
:1059700008F808000008F808203F210101213F2015
:10598000000808F8080800000020203F2020000040
:1059900000000808F8080800C08080807F00000030
:1059A00008F888C028180800203F20012638200069
:1059B00008F8080000000000203F202020203000D0
:1059C00008F8F800F8F80800203F003F003F2000EA
:1059D00008F830C00008F808203F200007183F00F2
:1059E000E01008080810E0000F10202020100F0021
:1059F00008F808080808F000203F21010101000014
:105A0000E01008080810E0000F18242438504F0058
:105A100008F8888888887000203F2000030C302018
:105A200000708808080838000038202121221C0056
:105A3000180808F8080818000000203F200000009F
:105A400008F808000008F808001F202020201F0088
:105A50000878880000C83808000007380E010000E8
:105A6000F80800F80008F800033C0700073C0300B2
:105A7000081868808068180820302C03032C302018
:105A80000838C800C83808000000203F2000000087
:105A900010080808C83808002038262120201800DF
:105AA000000000FE020202000000007F40404000B3
:105AB000000C30C000000000000000010638C000EB
:105AC00000020202FE000000004040407F00000093
:105AD00000000402020204000000000000000000B8
